:100000000C9433000C9497090C94BE090C94E509E8
:100010000C9446090C941D090C94450C0C94CB08C7
:100020000C94F4080C94A2080C9479080C945008D1
:100030000C94450C0C94450C0C94450C0C94450CFC
:100040000C9400040C94450C0C94450C0C94450C39
:100050000C94450C0060006180006100B400189AA7
:1000600000B400EF800011241FBECFE5D8E0DEBF52
:10007000CDBFE4E5F0E040E017C0B591A591359122
:100080002591059107FD0CC095918591EF01F92F00
:10009000E82F05900D92A217B307D9F7FE0104C00F
:1000A0001D92A217B307E1F7E536F40731F70E9476
:0A00B000D00A0C94F10BF894FFCF76
:1000BA00466F7277617264005363616E6E696E6730
:1000CA00005374656572696E6720526967687400C7
:1000DA006F927F928F929F92AF92BF92CF92DF924E
:1000EA00EF92FF920F931F93CF93DF934115510520
:1000FA0009F4DEC0813021F48FEFFA0184A304C031
:10010A00811102C0FA0114A2EA01762E18A6CA01C8
:10011A0081960E946703CE0185960E9467038881B3
:10012A00811170C0872D807F84FB992790F99C8B61
:10013A0085FB992790F9988F86FB992790F99C8FD0
:10014A0087FB882780F988A35E01F1E1AF0EB11C15
:10015A00C5010E9467036E0185E1C80ED11CC60164
:10016A000E9467037E0199E1E90EF11CC7010E9412
:10017A0067034E01EDE18E0E911CC4010E946703D4
:10018A0066246A946CA68E01075D1F4FC8010E94FF
:10019A0067038FE39CE90197F1F700C000001CA6F2
:1001AA00C8010E946703672D6295607F64FB8827F8
:1001BA0080F98C8B65FB882780F9888F66FB8827F6
:1001CA0080F98C8F67FB662760F968A3C5010E94D6
:1001DA006703C6010E946703C7010E946703C4013F
:1001EA000E9467036CA6C8010E946703EFE3FCE95B
:1001FA003197F1F700C000001CA6C8010E946703EE
:10020A0080E059C0813009F055C0872D81708C83F8
:10021A0071FA882780F9888772FA882780F98C878B
:10022A0073FA882780F9888B74FA882780F98C8B6F
:10023A0075FA882780F9888F76FA882780F98C8F53
:10024A0077FA662760F968A3CE0101960E946703D0
:10025A00CE0105960E946703CE0109960E946703A4
:10026A00CE010D960E946703CE0141960E94670354
:10027A00CE0145960E946703CE0149960E94670304
:10028A00CE014D960E9467038FEF8CA78E01075D02
:10029A001F4FC8010E9467038FE39CE90197F1F79A
:1002AA0000C000001CA6C8010E94670380E003C0CA
:1002BA0082E001C083E0DF91CF911F910F91FF90FF
:1002CA00EF90DF90CF90BF90AF909F908F907F90EC
:0402DA006F90089584
:1002DE00CF92DF92EF92FF920F931F93CF93DF9304
:1002EE00EC01892B09F454C08981811157C0888192
:1002FE008130D9F018F08230A1F156C013BE62B72A
:10030E00062F10E06091D5007091D6008091D70035
:10031E009091D8000E94E4072FE632E143E851E4C1
:10032E000E943E0C6B017C0144C01EBC1FBC8CB5F0
:10033E006DB570E0762F66278B01082B6091D1008A
:10034E007091D2008091D3009091D4000E94E40766
:10035E002FE632E143E855E40E943E0C6B017C012E
:10036E0028C015BC64B5062F10E06091CD007091C9
:10037E00CE008091CF009091D0000E94E4072FE62E
:10038E0032E143E851E40E943E0C6B017C0111C046
:10039E00C12CD12C760100E010E00BC0C12CD12C69
:1003AE00760100E010E005C0C12CD12C760100E0F2
:1003BE0010E08A81811112C0B80180E090E00E94A5
:1003CE00E4072FE632E143E85FE30E943E0C20E0B3
:1003DE0030E040E85DE30E943E0C15C0813081F4B0
:1003EE00B801762F6627770F770F729562956F702B
:1003FE0067277F70672780E090E00E94E40703C0C4
:10040E0060E070E0CB01A70196010E940E0C21E086
:10041E002983DF91CF911F910F91FF90EF90DF9085
:04042E00CF900895CE
:10043200FC019181943008F096C08081883008F0E8
:1004420094C0913051F138F0923009F448C09330A1
:1004520009F467C08CC092819F3F71F44AB321E0D6
:1004620030E0B90102C0660F771F8A95E2F7CB012F
:10047200842B8ABB80E0089591117BC04AB321E0AE
:1004820030E0B90102C0660F771F8A95E2F7CB010F
:10049200809584238ABB80E0089592819F3F71F406
:1004A20047B321E030E0B90102C0660F771F8A9599
:1004B200E2F7CB01842B87BB80E0089591115BC0EA
:1004C20047B321E030E0B90102C0660F771F8A9579
:1004D200E2F7CB018095842387BB80E00895928167
:1004E2009F3F71F444B321E030E0B90102C0660FCE
:1004F200771F8A95E2F7CB01842B84BB80E00895B5
:1005020091113BC044B321E030E0B90102C0660F53
:10051200771F8A95E2F7CB018095842384BB80E024
:10052200089592819F3F71F441B321E030E0B90117
:1005320002C0660F771F8A95E2F7CB01842B81BB3D
:1005420080E0089591111BC041B321E030E0B90170
:1005520002C0660F771F8A95E2F7CB01809584234C
:1005620081BB80E0089581E0089581E0089580E0F4
:10057200089580E0089580E0089580E0089580E085
:020582000895DA
:10058400CF93DF9300D000D0CDB7DEB7009709F446
:1005940095C0FC012381213009F090C01382808131
:1005A400813081F120F0823009F45EC087C08181FE
:1005B40081110BC08281811103C08CE783BF11C0FC
:1005C400813079F48CE683BF0CC0813051F4828190
:1005D400811103C084E783BF04C0813011F484E631
:1005E40083BF84818CBF12BE89B78E7F89BF83E0AD
:1005F400898381E08A838FEF8B83CE0101960E94E9
:1006040019025CC0818181110DC08281811103C0F6
:1006140083EC8FBD04C0813011F483E88FBD8CE17D
:100624008EBD0EC0813061F48281811103C083ECE0
:1006340083BF04C0813011F483E883BF84E18EBD9D
:1006440084818BBD85818ABD1DBC1CBC89B78B7F11
:1006540089BF85E0898383E08A838FEF8B83CE0112
:1006640001960E9419022AC0818181110BC08281E6
:10067400811103C08EE785BD11C0813079F48EE607
:1006840085BD0CC0813051F48281811103C086E79D
:1006940085BD04C0813011F486E685BD848183BDA7
:1006A40014BC89B78F7B89BF87E0898383E08A8301
:1006B4008FEF8B83CE0101960E9419020F900F9049
:0A06C4000F900F90DF91CF91089581
:1006CE00FC019181943008F08EC08081883008F052
:1006DE008CC0913041F138F0923009F444C093301F
:1006EE0009F461C084C0938191110FC04BB321E016
:1006FE0030E0B90102C0660F771F8A95E2F7CB0191
:10070E00809584238BBB80E008954BB321E030E0CD
:10071E00B90102C0660F771F8A95E2F7CB01842BD1
:10072E008BBB80E00895938191110FC048B321E0F7
:10073E0030E0B90102C0660F771F8A95E2F7CB0150
:10074E008095842388BB80E0089548B321E030E093
:10075E00B90102C0660F771F8A95E2F7CB01842B91
:10076E0088BB80E00895938191110FC045B321E0BD
:10077E0030E0B90102C0660F771F8A95E2F7CB0110
:10078E008095842385BB80E0089545B321E030E059
:10079E00B90102C0660F771F8A95E2F7CB01842B51
:1007AE0085BB80E00895938191110FC042B321E083
:1007BE0030E0B90102C0660F771F8A95E2F7CB01D0
:1007CE008095842382BB80E0089542B321E030E01F
:1007DE00B90102C0660F771F8A95E2F7CB01842B11
:1007EE0082BB80E0089581E0089581E0089580E065
:0207FE0008955C
:100800001F920F920FB60F9211242F933F934F9385
:100810005F936F937F938F939F93AF93BF93EF9368
:10082000FF93CF93DF93CDB7DEB72A97DEBFCDBF5F
:10083000CE0101960E94FC0B8A81811105C085B111
:1008400090E04FEF50E00BC0813029F484B195B1B6
:100850004FEF53E004C040E050E080E090E02A8594
:10086000213031F4E091DC00F091DD00099539C0D0
:10087000211137C02B81213021F0D8F0223069F0CE
:100880002BC0BC01660F771F660F771F860F971F5F
:10089000BA010E94B40BCB011FC0982F84E6849F3D
:1008A000B001859F700D112480E00E94B40BCB0134
:1008B00013C06C817D81869F9001879F300D969F2C
:1008C000300D112484E6849FB001859F700D1124A2
:1008D000C9010E94B40BCB01E091DC00F091DD0076
:1008E00009952A960FB6F894DEBF0FBECDBFDF91F3
:1008F000CF91FF91EF91BF91AF919F918F917F9198
:100900006F915F914F913F912F910F900FBE0F907C
:040910001F90189587
:10091400CF93DF93CDB7DEB762970FB6F894DEBFFF
:100924000FBECDBF61C086E0E8EAF0E0DE011896B4
:1009340001900D928A95E1F7CE0108960E94C202B9
:100944002FEF81EE94E0215080409040E1F700C009
:10095400000081E690E00E94E60B2AEB30E040E0E4
:1009640087E0F901DE011196742F0E94D90B41E64C
:1009740050E067E0CE0101960E940C0A8EE890E0F8
:100984000E944E0B8BE990E00E944E0B0E94930A4A
:1009940084B3816084BB81B38F7B81BB85B3816069
:1009A40085BB8FE19EE40197F1F700C0000085B399
:1009B4008E7F85BBCE010E960E94EA0A6E857F85E6
:1009C40080E090E041E650E00E944E0641E650E0AF
:1009D40060E081E00E94730A6889798980E090E090
:1009E40041E650E00E944E0680916000882309F49D
:1009F4009ACF62960FB6F894DEBF0FBECDBFDF91DB
:040A0400CF910895F1
:100A0800009709F46CC0FC012081211129C0818163
:100A1800813071F028F0823099F08330C9F061C0DC
:100A280085B78E7F85BF85B78D7F85BF80E00895A8
:100A380085B7816085BF85B78D7F85BF80E00895C4
:100A480085B78E7F85BF85B7826085BF80E00895B2
:100A580085B7816085BF85B7826085BF80E00895CE
:100A6800213051F5FC018181813071F028F082300C
:100A780099F08330C9F037C085B78B7F85BF85B7BC
:100A8800877F85BF80E0089585B7846085BF85B777
:100A9800877F85BF80E0089585B78B7F85BF85B741
:100AA800886085BF80E0089585B7846085BF85B775
:100AB800886085BF80E008952230B9F4FC01818107
:100AC800823019F0833031F012C084B78F7B84BF35
:100AD80080E0089584B7806484BF80E0089582E050
:100AE800089581E0089581E0089581E0089581E006
:020AF80008955F
:100AFA000FC00E94140C38F00E941B0C20F09523A2
:100B0A0011F00C94290C0C94420C11240C94230C13
:100B1A000E942F0A70F3959FC1F3950F50E0551F5D
:100B2A00629FF001729FBB27F00DB11D639FAA2738
:100B3A00F00DB11DAA1F649F6627B00DA11D661F87
:100B4A00829F2227B00DA11D621F739FB00DA11DA8
:100B5A00621F839FA00D611D221F749F3327A00D62
:100B6A00611D231F849F600D211D822F762F6A2FFE
:100B7A0011249F5750409AF0F1F088234AF0EE0F63
:100B8A00FF1FBB1F661F771F881F91505040A9F790
:100B9A009E3F510580F00C94290C0C94230C5F3F66
:100BAA00E4F3983ED4F3869577956795B795F795CC
:100BBA00E7959F5FC1F7FE2B880F911D9695879544
:040BCA0097F90895FA
:100BCE0011C00E94140C38F00E941B0C20F039F456
:100BDE009F3F19F426F40C94420C0EF4E095E7FBBB
:100BEE000C94290CE92F0E942F0A58F3BA176207AA
:100BFE0073078407950720F079F4A6F50C94220C60
:100C0E000EF4E0950B2EBA2FA02D0B01B901900119
:100C1E000C01CA01A0011124FF27591B99F0593F5D
:100C2E0050F4503E68F11A16F040A22F232F342FA5
:100C3E004427585FF3CF469537952795A795F040F3
:100C4E005395C9F77EF41F16BA0B620B730B840B08
:100C5E00BAF09150A1F0FF0FBB1F661F771F881FC0
:100C6E00C2F70EC0BA0F621F731F841F48F4879518
:100C7E0077956795B795F7959E3F08F0B0CF93950A
:0E0C8E00880F08F09927EE0F97958795089527
:100C9C00CF92DF92EF92FF920F931F93CF93DF933C
:100CAC008B019C01EA01209739F582E048C0DC01F8
:100CBC00CB01880F991FAA1FBB1F6C017D01CC0CA7
:100CCC00DD1CEE1CFF1CCC0CDD1CEE1CFF1CC80E2E
:100CDC00D91EEA1EFB1EC901B8012AE030E040E033
:100CEC0050E00E94510A6C0D7D1D8E1D9F1D022F20
:100CFC00132F242F352F04C061E070E080E090E0CA
:100D0C00011511052105310591F613C02AE030E0DB
:100D1C0040E050E00E94510AE22EF32E042F152FD2
:100D2C00605DAE0181E00E946D006E2D7F2D802FE5
:100D3C00912F613071058105910541F780E0DF91BC
:100D4C00CF911F910F91FF90EF90DF90CF9008956E
:100D5C000F931F93CF93DF93CDB7DEB763970FB687
:100D6C00F894DEBF0FBECDBF81E690E00E94E60B8B
:100D7C0022EC30E040E087E0F901DE011196742F9F
:100D8C000E94D90B41E650E068E0CE0101960E942A
:100D9C000C0A86E0EEEAF0E0DE01189601900D9266
:100DAC008A95E1F700E010E021C01E861F8681E0E5
:100DBC00888B898BF801EE0FFF1F81E090E08C0F80
:100DCC009D1FE80FF91F878190859B8B8A8BCE0125
:100DDC000E960E94C2029FEF29E688E191502040B6
:100DEC008040E1F700C000000F5F1F4F0430110579
:100DFC00E0F263960FB6F894DEBF0FBECDBFDF9165
:080E0C00CF911F910F91089591
:100E140089EC90E00E946F010E9421087093DF002A
:100E24006093DE008091EE00811111C08091EE008C
:100E34008F5F8093EE0082E08093DA0089ED90E08A
:100E44000E94040589EC90E00E9457070895809160
:100E5400EE008130C9F48091EE008F5F8093EE0044
:100E64008091DE009091DF009093C5008093C400D0
:100E740083E08093DA0089ED90E00E94040589EC18
:100E840090E00E94570708958091EE00823061F44B
:100E94008091DE009091DF009093C7008093C6009C
:0A0EA40089ED90E00E941D0B0895F7
:100EAE00009709F447C0FC012181213009F042C0AE
:100EBE00118280818130B9F018F0823049F10895A5
:100ECE001092D5001092D6001092D7001092D80032
:100EDE0088E79BE00E942F0C85E083BF12BE89B786
:100EEE00816089BF08951092D1001092D2001092A5
:100EFE00D3001092D4008CE89BE00E94340C85E065
:100F0E008EBD1FBC1DBC1CBC89B7846089BF0895F3
:100F1E001092CD001092CE001092CF001092D00001
:100F2E0080EA9BE00E94390C87E085BD14BC89B72E
:060F3E00806489BF0895E4
:100F4400CF92DF92EF92FF920F931F93CF93C0E063
:100F54002FC0CC2ED12C8DE08C9D80018D9D100D49
:100F64001124C80182579F4F7C010E941902C801B5
:100F74008E569F4F0E941902C8018A569F4F0E94A5
:100F84001902F7018485813029F4F7018FEF8383F7
:100F940017820DC081110BC08DE08C9DF0018D9DD9
:100FA400F00D1124E257FF4F13828FEF8783CF5F39
:100FB400C23078F2CF911F910F91FF90EF90DF90A4
:040FC400CF9008952D
:100FC800E89409C097FB3EF49095809570956195DB
:100FD8007F4F8F4F9F4F9923A9F0F92F96E9BB2791
:100FE8009395F695879577956795B795F111F8CF0D
:100FF800FAF4BB0F11F460FF1BC06F5F7F4F8F4F78
:101008009F4F16C0882311F096E911C0772321F06D
:101018009EE8872F762F05C0662371F096E8862F05
:1010280070E060E02AF09A95660F771F881FDAF75C
:0A103800880F9695879597F90895A3
:101042000E94370A88F09F5798F0B92F9927B75115
:10105200B0F0E1F0660F771F881F991F1AF0BA955A
:10106200C9F714C0B13091F00E94220CB1E008958A
:101072000C94220C672F782F8827B85F39F0B93F7C
:10108200CCF3869577956795B395D9F73EF490950D
:0E1092008095709561957F4F8F4F9F4F089509
:1010A0001F920F920FB60F9211242F933F934F93DD
:1010B0005F936F937F938F939F93AF93BF93EF93C0
:1010C000FF93E091EC00F091ED00309709F0099565
:1010D000FF91EF91BF91AF919F918F917F916F9110
:1010E0005F914F913F912F910F900FBE0F901F90E6
:0210F000189551
:1010F2001F920F920FB60F9211242F933F934F938B
:101102005F936F937F938F939F93AF93BF93EF936D
:10111200FF93E091EA00F091EB00309709F0099516
:10112200FF91EF91BF91AF919F918F917F916F91BD
:101132005F914F913F912F910F900FBE0F901F9093
:021142001895FE
:101144001F920F920FB60F9211242F933F934F9338
:101154005F936F937F938F939F93AF93BF93EF931B
:10116400FF93E091E800F091E900309709F00995C8
:10117400FF91EF91BF91AF919F918F917F916F916B
:101184005F914F913F912F910F900FBE0F901F9041
:021194001895AC
:101196001F920F920FB60F9211242F933F934F93E6
:1011A6005F936F937F938F939F93AF93BF93EF93C9
:1011B600FF93E091E600F091E700309709F009957A
:1011C600FF91EF91BF91AF919F918F917F916F9119
:1011D6005F914F913F912F910F900FBE0F901F90EF
:0211E60018955A
:1011E8001F920F920FB60F9211242F933F934F9394
:1011F8005F936F937F938F939F93AF93BF93EF9377
:10120800FF93E091E400F091E500309709F009952B
:10121800FF91EF91BF91AF919F918F917F916F91C6
:101228005F914F913F912F910F900FBE0F901F909C
:02123800189507
:10123A001F920F920FB60F9211242F933F934F9341
:10124A005F936F937F938F939F93AF93BF93EF9324
:10125A00FF93E091E200F091E300309709F00995DD
:10126A00FF91EF91BF91AF919F918F917F916F9174
:10127A005F914F913F912F910F900FBE0F901F904A
:02128A001895B5
:10128C001F920F920FB60F9211242F933F934F93EF
:10129C005F936F937F938F939F93AF93BF93EF93D2
:1012AC00FF93E091E000F091E100309709F009958F
:1012BC00FF91EF91BF91AF919F918F917F916F9122
:1012CC005F914F913F912F910F900FBE0F901F90F8
:0212DC00189563
:1012DE00CF93DF9300D000D0CDB7DEB78EE890E08D
:1012EE000E94050C8BE990E00E94050C81E690E0CF
:1012FE000E94E60B83E594E79A8389838FE690E755
:10130E009C838B8341E650E064E0CE0101960E94FF
:10131E000C0A0F900F900F900F90DF91CF910895C0
:10132E001F920F920FB60F9211242F933F934F934C
:10133E005F936F937F938F939F93AF93BF93EF932F
:10134E00FF93E091BE00F091BF000995FF91EF91E0
:10135E00BF91AF919F918F917F916F915F914F91BF
:0E136E003F912F910F900FBE0F901F9018957A
:10137C001F920F920FB60F9211242F933F934F93FE
:10138C005F936F937F938F939F93AF93BF93EF93E1
:10139C00FF93E091C000F091C1000995FF91EF918E
:1013AC00BF91AF919F918F917F916F915F914F9171
:0E13BC003F912F910F900FBE0F901F9018952C
:1013CA001F920F920FB60F9211242F933F934F93B0
:1013DA005F936F937F938F939F93AF93BF93EF9393
:1013EA00FF93E091C200F091C3000995FF91EF913C
:1013FA00BF91AF919F918F917F916F915F914F9123
:0E140A003F912F910F900FBE0F901F901895DD
:10141800EF92FF920F931F93CF93DF9341155105DE
:1014280061F482E011C0F701EC0FF11DA8016081A1
:1014380081E00E946D00CF5F04C08A01D62F7C0135
:10144800C0E0CD1780F380E0DF91CF911F910F911D
:06145800FF90EF900895E3
:10145E0057FD9058440F551F59F05F3F71F0479557
:10146E00880F97FB991F61F09F3F79F0879508953C
:10147E00121613061406551FF2CF4695F1DF08C05B
:10148E00161617061806991FF1CF86957105610578
:04149E000894089511
:1014A200A1E21A2EAA1BBB1BFD010DC0AA1FBB1F66
:1014B200EE1FFF1FA217B307E407F50720F0A21BD8
:1014C200B30BE40BF50B661F771F881F991F1A9445
:1014D20069F760957095809590959B01AC01BD016F
:0414E200CF01089599
:1014E6006031B0F48230B0F441155105A9F088237B
:1014F60019F0813039F012C0605880E00E946D000A
:1015060080E00895605480E00E946D0080E00895B8
:1015160081E0089581E0089582E0089581E00895CC
:101526001092EE001092DF001092DE00E9ECF0E07F
:10153600108281E081838283E9EDF0E0108283E00E
:1015460081831282BF018AE097E00E94360B89EC04
:1015560090E00E94570789ED90E00E94B30A089533
:10156600CF93DF930097A9F0EC018A81811104C023
:10157600CE010E94040B05C0813019F4CE010E94F1
:101586001D0BCE010E9404058FB780688FBF80E0D7
:0A15960001C082E0DF91CF910895BB
:1015A0000E94490C0E94A20780916000811102C034
:1015B0000E948A04809160008130B1F70E946F0917
:1015C00004C00E94AE060E94630B809160008130CF
:0415D000C1F3EACFAA
:1015D400FC01A4ECB0E06D917C9111977183608360
:1015E40012962D913C9113973383228344E6469FB0
:1015F400C001479F900D1124620F731F0E94B40B0A
:04160400648308955E
:10160800FC018081813049F018F0823059F00FC018
:101618008BB780648BBF80E008958BB780688BBFE1
:1016280080E008958BB780628BBF80E0089581E0E9
:02163800089513
:10163A00FC018081813049F018F0823059F00FC0E6
:10164A008BB78F7B8BBF80E008958BB78F778BBF6B
:10165A0080E008958BB78F7D8BBF80E0089581E08D
:02166A000895E1
:10166C009C01FB019081913049F018F0923059F0B7
:10167C0008953093BF002093BE0008953093C100AD
:10168C002093C00008953093C3002093C2000895A6
:10169C00CF93DF93009771F0EC018FEF8B87CE0126
:1016AC0004960E946703CE010E946703CE01089640
:0A16BC000E946703DF91CF910895AB
:1016C600CF93DF93CDB7DEB72D970FB6F894DEBF75
:1016D6000FBECDBF109260002D960FB6F894DEBFF8
:0A16E6000FBECDBFDF91CF91089534
:1016F0008091D5009091D600A091D700B091D800EC
:101700000196A11DB11D8093D5009093D600A093A2
:08171000D700B093D800089542
:101718008091D1009091D200A091D300B091D400D3
:101728000196A11DB11D8093D1009093D200A09382
:08173800D300B093D400089522
:101740008091CD009091CE00A091CF00B091D000BB
:101750000196A11DB11D8093CD009093CE00A09362
:08176000CF00B093D000089502
:10176800AA1BBB1B51E107C0AA1FBB1FA617B707BF
:1017780010F0A61BB70B881F991F5A95A9F78095DB
:081788009095BC01CD0108950C
:10179000092E0394000C11F4882352F0BB0F40F47F
:1017A000BF2B11F460FF04C06F5F7F4F8F4F9F4FBF
:0217B00008959A
:1017B200992777FD05C005900D920197E1F70895ED
:0A17C20001900D920197E1F70895E0
:1017CC00009739F0AC0161E080E00E946D0080E090
:0617DC00089582E008956B
:1017E200EC010E944B0C0E944A0CCE010E944C0C50
:0617F200CE010E94470C2D
:1017F8002AE0E4EBF0E0DC0101900D922A95E1F794
:02180800089541
:10180A00009729F0FC01138608960E946703089541
:0E181A005058BB27AA270E94E7050C94C80B64
:0E18280000240A9416161706180609060895DD
:0E18360000240A9412161306140605060895DF
:0E184400E894BB2766277727CB0197F9089514
:0C18520097F99F6780E870E060E008955F
:0A185E009093ED008093EC000895D4
:0A1868009093E9008093E8000895D2
:0A1872009093E3008093E2000895D4
:08187C000E947D050C94C80BCD
:061884009FEF80EC0895C7
:04188A000C940000BA
:04188E000E945B0059
:021892000895B7
:021894000895B5
:021896000895B3
:021898000895B1
:10189A00000000FFFF0100FFFF0200FFFF0300FF3F
:1018AA00FF0400FFFF0500FFFF0600FFFF0700FF20
:0D18BA00FF0101FFFF0201FFFF0401FFFF1E
:1018C7000302FFFF0402FF000403FF00010502FFFC
:0A18D700FF0602FF000503FF0001F9
:0C18E100000001012E001F002E003D0041
:00000001FF
